:1000000003308A000F2B0000CC3A7A103D10A5185F
:100010002E19E6060A00CD2832103D10A5182E191B
:10002000E6060A00283084008313000803192628F6
:100030000130F800F701F70B1B28F80B1A284A309B
:10004000F700F70B21282428800B182808008E3091
:10005000F7002808F8002708F900FA01F808031D3E
:100060003B287908F800F9010830F702F808031D69
:100070003B28F70143280310F81B4228F90DF80D1F
:10008000F7033B28F813080034080319B428BC0010
:1000900038080319B428BC07031855287F30BC0260
:1000A000031CB4280319B42859288130BC0703184D
:1000B000B4283C08F700F801F901FA013508C0003E
:1000C000C0173608BF003708BE001830BC00BD019D
:1000D0003E1C82283B08FA07031C7428F90A031DFA
:1000E0007428F80A0319BD173A08F907031C7B287E
:1000F000F80A0319BD173908B600B6173608F8070D
:100100000318BD17BD0DF80CF90CFA0CC00CBF0C90
:10011000BE0C0310BC0B67280130F7070318B42886
:10012000F81B9928C00DFA0DF90DF80DF703031906
:10013000B428C01FAA28FA0A031DAA28F90A031D19
:10014000AA28F80A031DAA28F80CF90CFA0CF70AD9
:100150000319B4283508BD003908BD06BD1FB228F3
:10016000F817B828F813B828F701F801F901FA01CF
:1001700008002B0803197E29B7002F0803197E29D0
:10018000B702031CC8287F30B70703187E29CE2882
:100190008130B702031C7E2903197E293708F70036
:1001A000F801F901FA01B6012C08B500B5172D08C0
:1001B000B4002E08B3001930B7003208B302031898
:1001C000F1280130B4020318F128B5020318F12810
:1001D000B6020318F128B60AB50AB40A3208B30702
:1001E00023293108B40203180C290130B502031881
:1001F0000C29B60203180C29B60AB50A3108B4074F
:100200003208B307031C2329B40A031D2329B50AA6
:10021000031D2329B60A232930088038B5020318A4
:1002200022290130B60203182229B60A3008803884
:10023000B5073108B407031C0029B50A031D0029BE
:10024000B60A00297A14B70B262931290310B30DF9
:10025000B40DB50DB60D0310FA0DF90DF80DB80D6E
:10026000DD28381C39290310F80CF90CFA0CB80CED
:100270003C29F70303197E29B81B65290310B30D28
:10028000B40DB50DB60D3208B30203185129013073
:10029000B40203185129B50203185129B602031CF0
:1002A00074293108B40203185C290130B50203181F
:1002B0005C29B602031C742930088038B502031883
:1002C00065290130B602031C7429FA0A031D74293A
:1002D000F90A031D7429F80A031D7429F70A031982
:1002E0007E29F80CF90CFA0C2C08B7003008B70678
:1002F000B71F7C29F8178229F8138229F701F80122
:10030000F901FA0108000B08A8008B1383160317E4
:100310008C170C140000000083120313A81B8B170A
:100320000318BB2903170C087F390313A800031710
:100330000D080313A90003170F080313AA002808C8
:100340000C1EA0299900290803178D0003132A0801
:1003500003178F0003130B08AB008B1383160317CF
:100360008C170C140000000083120313AB1B8B17B7
:10037000A70BBB29DB2903170C0D0E0D7F390313C7
:10038000A80003170D080313A90003170F08031390
:10039000AA0028080C1ECA299900290803178D00F5
:1003A00003132A0803178F008D0A03198F0A0310FD
:1003B0000313A70B832908008318E1293C3084002C
:1003C0008313F701F801F901FA01BC01BD01BE0177
:1003D000BF013B083A043904380403191F2A2030AE
:1003E000C0000310B40DB50DB60DB70DBC0DBD0D9D
:1003F000BE0DBF0D3B083F02031D082A3A083E020E
:10040000031D082A39083D02031D082A38083C024A
:10041000031C192A3808BC023908031C390FBD0215
:100420003A08031C3A0FBE023B08031C3B0FBF02F5
:100430000314F70DF80DF90DFA0DC00BF1293C0866
:100440008000840A3D088000840A3E088000840AF7
:100450003F08800008000408AC002B08AE00031918
:100460004A2A2A08B7002908B6002808B500270834
:10047000B400BB01BA012030B9008230B80044207A
:100480007A08AA007908A9007808A8007708A700C8
:10049000AE0B312A2A08B7002908B6002808B50093
:1004A0002708B4003408B63CB400FA013508B80097
:1004B000B5170310B50CB60CB70CFA0CF90CF80C08
:1004C000F70CB40B592AB81F702AF709F809F90973
:1004D000FA09F70A0319F80A0319F90A0319FA0ABB
:1004E0007A08AA007908A9007808A8007708A70068
:1004F000AA1F872AAC03AC16A709A809A909AA094B
:10050000A70A0319A80A0319A90A0319AA0A3B3062
:10051000B3009A30B200CA30B100B0010A30AE0068
:100520002B080319AC0A83142730840083132A088C
:10053000B7002908B6002808B5002708B40033081A
:10054000BB003208BA003108B9003008B800DC211D
:100550007808F708031DBF2A2B0A2E020319BF2AA9
:100560002C080319C12A0F392E020319B92A0318BE
:10057000F52AAC1BF52A2C1BC12A2030F02A20308A
:10058000AC05AC1ED02AAC122B08031DAC037708B7
:10059000AC002D300C1ECA2A99002C08F700AC01C3
:1005A0002B082E02031DDF2A7708AC002E300C1E0C
:1005B000D72A99002C08F7002030AC0500303030E5
:1005C000AC1EF02AAC122B08031DAC037708AC005C
:1005D0002D300C1EE92A99002C08F700AC013030B0
:1005E000F70777080C1EF22A990083103308B7002A
:1005F0003208B6003108B5003008B400BB01BA01BA
:10060000B9010A30B800DC217A08B3007908B200D9
:100610007808B1007708B000AE0B932A08000308F1
:100620001F398300613083168F000F08031787116D
:10063000193003139900A630980090308312980067
:10064000831603170908C039890003131F129F126C
:100650000030031788008312870188018901831302
:1006600083160908C039890003131F129F120F3027
:1006700003178800831203131F139F1383169F17FA
:1006800083121F140030F8001F08C33978049F003C
:100690000130A80012209F149F184C2B83161E08AF
:1006A0008312A5001E08A6002608A8002508A7009A
:1006B00027202930B7005C30B6001F30B5008130EC
:1006C000B4007A08BB007908BA007808B900770846
:1006D000B80044207A08AA007908A9007808A80080
:1006E0007708A7007A08AE007908AD007808AC005A
:1006F0007708AB00B201C030B1007F30B000883065
:10070000AF00B9207A08A4007908A3007808A200F5
:100710007708A100043003178D0000308F0003100C
:1007200006300313A7008321893084002408AA001F
:100730002308A9002208A8002108A7000230AB0066
:100740002B220D300C1EA22B99000A300C1EA62B5A
:1007500099000830A700FA30A8001220A70BAB2B95
:100760000430F8001F08C33978049F000130A80046
:1007700012209F149F18BA2B83161E088312A500FF
:100780001E08A6002608A8002508A7002720293053
:10079000B7005C30B6001F30B5008130B4007A0875
:1007A000BB007908BA007808B9007708B80044207F
:1007B0007A08AA007908A9007808A8007708A70095
:1007C0007A08AE007908AD007808AC007708AB0075
:1007D000B201C030B1007F30B0008830AF00B92026
:1007E0007A08A4007908A3007808A2007708A1007D
:1007F0000B3003178D0000308F00031006300313F9
:10080000A7008321893084002408AA002308A900B6
:100810002208A8002108A7000230AB002B220D30CF
:100820000C1E102C99000A300C1E142C9900083054
:10083000A700FA30A8001220A70B192C422B630046
:04400E00E42CFF3F60
:00000001FF
;PIC16F887
;CRC=4E7B  CREATED="06-abr.-18 21:13"
